{
  "_format": "hh-sol-artifact-1",
  "contractName": "WhaleTest",
  "sourceName": "contracts/WhaleTest.sol",
  "abi": [
    {
      "inputs": [
        {
          "internalType": "uint256",
          "name": "_minGasToTransfer",
          "type": "uint256"
        },
        {
          "internalType": "address",
          "name": "_layerZeroEndpoint",
          "type": "address"
        },
        {
          "internalType": "uint256",
          "name": "_startMintId",
          "type": "uint256"
        },
        {
          "internalType": "uint256",
          "name": "_endMintId",
          "type": "uint256"
        }
      ],
      "stateMutability": "nonpayable",
      "type": "constructor"
    },
    {
      "anonymous": false,
      "inputs": [
        {
          "indexed": true,
          "internalType": "address",
          "name": "owner",
          "type": "address"
        },
        {
          "indexed": true,
          "internalType": "address",
          "name": "approved",
          "type": "address"
        },
        {
          "indexed": true,
          "internalType": "uint256",
          "name": "tokenId",
          "type": "uint256"
        }
      ],
      "name": "Approval",
      "type": "event"
    },
    {
      "anonymous": false,
      "inputs": [
        {
          "indexed": true,
          "internalType": "address",
          "name": "owner",
          "type": "address"
        },
        {
          "indexed": true,
          "internalType": "address",
          "name": "operator",
          "type": "address"
        },
        {
          "indexed": false,
          "internalType": "bool",
          "name": "approved",
          "type": "bool"
        }
      ],
      "name": "ApprovalForAll",
      "type": "event"
    },
    {
      "anonymous": false,
      "inputs": [
        {
          "indexed": false,
          "internalType": "bytes32",
          "name": "_hashedPayload",
          "type": "bytes32"
        }
      ],
      "name": "CreditCleared",
      "type": "event"
    },
    {
      "anonymous": false,
      "inputs": [
        {
          "indexed": false,
          "internalType": "bytes32",
          "name": "_hashedPayload",
          "type": "bytes32"
        },
        {
          "indexed": false,
          "internalType": "bytes",
          "name": "_payload",
          "type": "bytes"
        }
      ],
      "name": "CreditStored",
      "type": "event"
    },
    {
      "anonymous": false,
      "inputs": [
        {
          "indexed": false,
          "internalType": "uint16",
          "name": "_srcChainId",
          "type": "uint16"
        },
        {
          "indexed": false,
          "internalType": "bytes",
          "name": "_srcAddress",
          "type": "bytes"
        },
        {
          "indexed": false,
          "internalType": "uint64",
          "name": "_nonce",
          "type": "uint64"
        },
        {
          "indexed": false,
          "internalType": "bytes",
          "name": "_payload",
          "type": "bytes"
        },
        {
          "indexed": false,
          "internalType": "bytes",
          "name": "_reason",
          "type": "bytes"
        }
      ],
      "name": "MessageFailed",
      "type": "event"
    },
    {
      "anonymous": false,
      "inputs": [
        {
          "indexed": true,
          "internalType": "address",
          "name": "previousOwner",
          "type": "address"
        },
        {
          "indexed": true,
          "internalType": "address",
          "name": "newOwner",
          "type": "address"
        }
      ],
      "name": "OwnershipTransferred",
      "type": "event"
    },
    {
      "anonymous": false,
      "inputs": [
        {
          "indexed": true,
          "internalType": "uint16",
          "name": "_srcChainId",
          "type": "uint16"
        },
        {
          "indexed": true,
          "internalType": "bytes",
          "name": "_srcAddress",
          "type": "bytes"
        },
        {
          "indexed": true,
          "internalType": "address",
          "name": "_toAddress",
          "type": "address"
        },
        {
          "indexed": false,
          "internalType": "uint256[]",
          "name": "_tokenIds",
          "type": "uint256[]"
        }
      ],
      "name": "ReceiveFromChain",
      "type": "event"
    },
    {
      "anonymous": false,
      "inputs": [
        {
          "indexed": false,
          "internalType": "uint16",
          "name": "_srcChainId",
          "type": "uint16"
        },
        {
          "indexed": false,
          "internalType": "bytes",
          "name": "_srcAddress",
          "type": "bytes"
        },
        {
          "indexed": false,
          "internalType": "uint64",
          "name": "_nonce",
          "type": "uint64"
        },
        {
          "indexed": false,
          "internalType": "bytes32",
          "name": "_payloadHash",
          "type": "bytes32"
        }
      ],
      "name": "RetryMessageSuccess",
      "type": "event"
    },
    {
      "anonymous": false,
      "inputs": [
        {
          "indexed": true,
          "internalType": "uint16",
          "name": "_dstChainId",
          "type": "uint16"
        },
        {
          "indexed": true,
          "internalType": "address",
          "name": "_from",
          "type": "address"
        },
        {
          "indexed": true,
          "internalType": "bytes",
          "name": "_toAddress",
          "type": "bytes"
        },
        {
          "indexed": false,
          "internalType": "uint256[]",
          "name": "_tokenIds",
          "type": "uint256[]"
        }
      ],
      "name": "SendToChain",
      "type": "event"
    },
    {
      "anonymous": false,
      "inputs": [
        {
          "indexed": false,
          "internalType": "uint16",
          "name": "_dstChainId",
          "type": "uint16"
        },
        {
          "indexed": false,
          "internalType": "uint256",
          "name": "_dstChainIdToBatchLimit",
          "type": "uint256"
        }
      ],
      "name": "SetDstChainIdToBatchLimit",
      "type": "event"
    },
    {
      "anonymous": false,
      "inputs": [
        {
          "indexed": false,
          "internalType": "uint16",
          "name": "_dstChainId",
          "type": "uint16"
        },
        {
          "indexed": false,
          "internalType": "uint256",
          "name": "_dstChainIdToTransferGas",
          "type": "uint256"
        }
      ],
      "name": "SetDstChainIdToTransferGas",
      "type": "event"
    },
    {
      "anonymous": false,
      "inputs": [
        {
          "indexed": false,
          "internalType": "uint16",
          "name": "_dstChainId",
          "type": "uint16"
        },
        {
          "indexed": false,
          "internalType": "uint16",
          "name": "_type",
          "type": "uint16"
        },
        {
          "indexed": false,
          "internalType": "uint256",
          "name": "_minDstGas",
          "type": "uint256"
        }
      ],
      "name": "SetMinDstGas",
      "type": "event"
    },
    {
      "anonymous": false,
      "inputs": [
        {
          "indexed": false,
          "internalType": "uint256",
          "name": "_minGasToTransferAndStore",
          "type": "uint256"
        }
      ],
      "name": "SetMinGasToTransferAndStore",
      "type": "event"
    },
    {
      "anonymous": false,
      "inputs": [
        {
          "indexed": false,
          "internalType": "address",
          "name": "precrime",
          "type": "address"
        }
      ],
      "name": "SetPrecrime",
      "type": "event"
    },
    {
      "anonymous": false,
      "inputs": [
        {
          "indexed": false,
          "internalType": "uint16",
          "name": "_remoteChainId",
          "type": "uint16"
        },
        {
          "indexed": false,
          "internalType": "bytes",
          "name": "_path",
          "type": "bytes"
        }
      ],
      "name": "SetTrustedRemote",
      "type": "event"
    },
    {
      "anonymous": false,
      "inputs": [
        {
          "indexed": false,
          "internalType": "uint16",
          "name": "_remoteChainId",
          "type": "uint16"
        },
        {
          "indexed": false,
          "internalType": "bytes",
          "name": "_remoteAddress",
          "type": "bytes"
        }
      ],
      "name": "SetTrustedRemoteAddress",
      "type": "event"
    },
    {
      "anonymous": false,
      "inputs": [
        {
          "indexed": true,
          "internalType": "address",
          "name": "from",
          "type": "address"
        },
        {
          "indexed": true,
          "internalType": "address",
          "name": "to",
          "type": "address"
        },
        {
          "indexed": true,
          "internalType": "uint256",
          "name": "tokenId",
          "type": "uint256"
        }
      ],
      "name": "Transfer",
      "type": "event"
    },
    {
      "inputs": [],
      "name": "DEFAULT_PAYLOAD_SIZE_LIMIT",
      "outputs": [
        {
          "internalType": "uint256",
          "name": "",
          "type": "uint256"
        }
      ],
      "stateMutability": "view",
      "type": "function"
    },
    {
      "inputs": [],
      "name": "FUNCTION_TYPE_SEND",
      "outputs": [
        {
          "internalType": "uint16",
          "name": "",
          "type": "uint16"
        }
      ],
      "stateMutability": "view",
      "type": "function"
    },
    {
      "inputs": [
        {
          "internalType": "address",
          "name": "to",
          "type": "address"
        },
        {
          "internalType": "uint256",
          "name": "tokenId",
          "type": "uint256"
        }
      ],
      "name": "approve",
      "outputs": [],
      "stateMutability": "nonpayable",
      "type": "function"
    },
    {
      "inputs": [
        {
          "internalType": "address",
          "name": "owner",
          "type": "address"
        }
      ],
      "name": "balanceOf",
      "outputs": [
        {
          "internalType": "uint256",
          "name": "",
          "type": "uint256"
        }
      ],
      "stateMutability": "view",
      "type": "function"
    },
    {
      "inputs": [
        {
          "internalType": "uint16",
          "name": "_dstChainId",
          "type": "uint16"
        },
        {
          "internalType": "address",
          "name": "_zroPaymentAddress",
          "type": "address"
        },
        {
          "internalType": "bytes",
          "name": "_adapterParams",
          "type": "bytes"
        }
      ],
      "name": "bridgeGas",
      "outputs": [],
      "stateMutability": "payable",
      "type": "function"
    },
    {
      "inputs": [
        {
          "internalType": "bytes",
          "name": "_payload",
          "type": "bytes"
        }
      ],
      "name": "clearCredits",
      "outputs": [],
      "stateMutability": "nonpayable",
      "type": "function"
    },
    {
      "inputs": [
        {
          "internalType": "uint16",
          "name": "",
          "type": "uint16"
        }
      ],
      "name": "dstChainIdToBatchLimit",
      "outputs": [
        {
          "internalType": "uint256",
          "name": "",
          "type": "uint256"
        }
      ],
      "stateMutability": "view",
      "type": "function"
    },
    {
      "inputs": [
        {
          "internalType": "uint16",
          "name": "",
          "type": "uint16"
        }
      ],
      "name": "dstChainIdToTransferGas",
      "outputs": [
        {
          "internalType": "uint256",
          "name": "",
          "type": "uint256"
        }
      ],
      "stateMutability": "view",
      "type": "function"
    },
    {
      "inputs": [
        {
          "internalType": "uint16",
          "name": "_dstChainId",
          "type": "uint16"
        },
        {
          "internalType": "bool",
          "name": "_useZro",
          "type": "bool"
        },
        {
          "internalType": "bytes",
          "name": "_adapterParams",
          "type": "bytes"
        }
      ],
      "name": "estimateGasBridgeFee",
      "outputs": [
        {
          "internalType": "uint256",
          "name": "nativeFee",
          "type": "uint256"
        },
        {
          "internalType": "uint256",
          "name": "zroFee",
          "type": "uint256"
        }
      ],
      "stateMutability": "view",
      "type": "function"
    },
    {
      "inputs": [
        {
          "internalType": "uint16",
          "name": "_dstChainId",
          "type": "uint16"
        },
        {
          "internalType": "bytes",
          "name": "_toAddress",
          "type": "bytes"
        },
        {
          "internalType": "uint256[]",
          "name": "_tokenIds",
          "type": "uint256[]"
        },
        {
          "internalType": "bool",
          "name": "_useZro",
          "type": "bool"
        },
        {
          "internalType": "bytes",
          "name": "_adapterParams",
          "type": "bytes"
        }
      ],
      "name": "estimateSendBatchFee",
      "outputs": [
        {
          "internalType": "uint256",
          "name": "nativeFee",
          "type": "uint256"
        },
        {
          "internalType": "uint256",
          "name": "zroFee",
          "type": "uint256"
        }
      ],
      "stateMutability": "view",
      "type": "function"
    },
    {
      "inputs": [
        {
          "internalType": "uint16",
          "name": "_dstChainId",
          "type": "uint16"
        },
        {
          "internalType": "bytes",
          "name": "_toAddress",
          "type": "bytes"
        },
        {
          "internalType": "uint256",
          "name": "_tokenId",
          "type": "uint256"
        },
        {
          "internalType": "bool",
          "name": "_useZro",
          "type": "bool"
        },
        {
          "internalType": "bytes",
          "name": "_adapterParams",
          "type": "bytes"
        }
      ],
      "name": "estimateSendFee",
      "outputs": [
        {
          "internalType": "uint256",
          "name": "nativeFee",
          "type": "uint256"
        },
        {
          "internalType": "uint256",
          "name": "zroFee",
          "type": "uint256"
        }
      ],
      "stateMutability": "view",
      "type": "function"
    },
    {
      "inputs": [
        {
          "internalType": "uint16",
          "name": "",
          "type": "uint16"
        },
        {
          "internalType": "bytes",
          "name": "",
          "type": "bytes"
        },
        {
          "internalType": "uint64",
          "name": "",
          "type": "uint64"
        }
      ],
      "name": "failedMessages",
      "outputs": [
        {
          "internalType": "bytes32",
          "name": "",
          "type": "bytes32"
        }
      ],
      "stateMutability": "view",
      "type": "function"
    },
    {
      "inputs": [],
      "name": "fee",
      "outputs": [
        {
          "internalType": "uint256",
          "name": "",
          "type": "uint256"
        }
      ],
      "stateMutability": "view",
      "type": "function"
    },
    {
      "inputs": [
        {
          "internalType": "uint16",
          "name": "_srcChainId",
          "type": "uint16"
        },
        {
          "internalType": "bytes",
          "name": "_srcAddress",
          "type": "bytes"
        }
      ],
      "name": "forceResumeReceive",
      "outputs": [],
      "stateMutability": "nonpayable",
      "type": "function"
    },
    {
      "inputs": [
        {
          "internalType": "uint256",
          "name": "tokenId",
          "type": "uint256"
        }
      ],
      "name": "getApproved",
      "outputs": [
        {
          "internalType": "address",
          "name": "",
          "type": "address"
        }
      ],
      "stateMutability": "view",
      "type": "function"
    },
    {
      "inputs": [
        {
          "internalType": "uint16",
          "name": "_version",
          "type": "uint16"
        },
        {
          "internalType": "uint16",
          "name": "_chainId",
          "type": "uint16"
        },
        {
          "internalType": "address",
          "name": "",
          "type": "address"
        },
        {
          "internalType": "uint256",
          "name": "_configType",
          "type": "uint256"
        }
      ],
      "name": "getConfig",
      "outputs": [
        {
          "internalType": "bytes",
          "name": "",
          "type": "bytes"
        }
      ],
      "stateMutability": "view",
      "type": "function"
    },
    {
      "inputs": [
        {
          "internalType": "uint16",
          "name": "_remoteChainId",
          "type": "uint16"
        }
      ],
      "name": "getTrustedRemoteAddress",
      "outputs": [
        {
          "internalType": "bytes",
          "name": "",
          "type": "bytes"
        }
      ],
      "stateMutability": "view",
      "type": "function"
    },
    {
      "inputs": [
        {
          "internalType": "address",
          "name": "owner",
          "type": "address"
        },
        {
          "internalType": "address",
          "name": "operator",
          "type": "address"
        }
      ],
      "name": "isApprovedForAll",
      "outputs": [
        {
          "internalType": "bool",
          "name": "",
          "type": "bool"
        }
      ],
      "stateMutability": "view",
      "type": "function"
    },
    {
      "inputs": [
        {
          "internalType": "uint16",
          "name": "_srcChainId",
          "type": "uint16"
        },
        {
          "internalType": "bytes",
          "name": "_srcAddress",
          "type": "bytes"
        }
      ],
      "name": "isTrustedRemote",
      "outputs": [
        {
          "internalType": "bool",
          "name": "",
          "type": "bool"
        }
      ],
      "stateMutability": "view",
      "type": "function"
    },
    {
      "inputs": [],
      "name": "lzEndpoint",
      "outputs": [
        {
          "internalType": "contract ILayerZeroEndpoint",
          "name": "",
          "type": "address"
        }
      ],
      "stateMutability": "view",
      "type": "function"
    },
    {
      "inputs": [
        {
          "internalType": "uint16",
          "name": "_srcChainId",
          "type": "uint16"
        },
        {
          "internalType": "bytes",
          "name": "_srcAddress",
          "type": "bytes"
        },
        {
          "internalType": "uint64",
          "name": "_nonce",
          "type": "uint64"
        },
        {
          "internalType": "bytes",
          "name": "_payload",
          "type": "bytes"
        }
      ],
      "name": "lzReceive",
      "outputs": [],
      "stateMutability": "nonpayable",
      "type": "function"
    },
    {
      "inputs": [],
      "name": "maxMintId",
      "outputs": [
        {
          "internalType": "uint256",
          "name": "",
          "type": "uint256"
        }
      ],
      "stateMutability": "view",
      "type": "function"
    },
    {
      "inputs": [
        {
          "internalType": "uint16",
          "name": "",
          "type": "uint16"
        },
        {
          "internalType": "uint16",
          "name": "",
          "type": "uint16"
        }
      ],
      "name": "minDstGasLookup",
      "outputs": [
        {
          "internalType": "uint256",
          "name": "",
          "type": "uint256"
        }
      ],
      "stateMutability": "view",
      "type": "function"
    },
    {
      "inputs": [],
      "name": "minGasToTransferAndStore",
      "outputs": [
        {
          "internalType": "uint256",
          "name": "",
          "type": "uint256"
        }
      ],
      "stateMutability": "view",
      "type": "function"
    },
    {
      "inputs": [],
      "name": "mint",
      "outputs": [],
      "stateMutability": "payable",
      "type": "function"
    },
    {
      "inputs": [],
      "name": "name",
      "outputs": [
        {
          "internalType": "string",
          "name": "",
          "type": "string"
        }
      ],
      "stateMutability": "view",
      "type": "function"
    },
    {
      "inputs": [],
      "name": "nextMintId",
      "outputs": [
        {
          "internalType": "uint256",
          "name": "",
          "type": "uint256"
        }
      ],
      "stateMutability": "view",
      "type": "function"
    },
    {
      "inputs": [
        {
          "internalType": "uint16",
          "name": "_srcChainId",
          "type": "uint16"
        },
        {
          "internalType": "bytes",
          "name": "_srcAddress",
          "type": "bytes"
        },
        {
          "internalType": "uint64",
          "name": "_nonce",
          "type": "uint64"
        },
        {
          "internalType": "bytes",
          "name": "_payload",
          "type": "bytes"
        }
      ],
      "name": "nonblockingLzReceive",
      "outputs": [],
      "stateMutability": "nonpayable",
      "type": "function"
    },
    {
      "inputs": [],
      "name": "owner",
      "outputs": [
        {
          "internalType": "address",
          "name": "",
          "type": "address"
        }
      ],
      "stateMutability": "view",
      "type": "function"
    },
    {
      "inputs": [
        {
          "internalType": "uint256",
          "name": "tokenId",
          "type": "uint256"
        }
      ],
      "name": "ownerOf",
      "outputs": [
        {
          "internalType": "address",
          "name": "",
          "type": "address"
        }
      ],
      "stateMutability": "view",
      "type": "function"
    },
    {
      "inputs": [
        {
          "internalType": "uint16",
          "name": "",
          "type": "uint16"
        }
      ],
      "name": "payloadSizeLimitLookup",
      "outputs": [
        {
          "internalType": "uint256",
          "name": "",
          "type": "uint256"
        }
      ],
      "stateMutability": "view",
      "type": "function"
    },
    {
      "inputs": [],
      "name": "precrime",
      "outputs": [
        {
          "internalType": "address",
          "name": "",
          "type": "address"
        }
      ],
      "stateMutability": "view",
      "type": "function"
    },
    {
      "inputs": [],
      "name": "renounceOwnership",
      "outputs": [],
      "stateMutability": "nonpayable",
      "type": "function"
    },
    {
      "inputs": [
        {
          "internalType": "uint16",
          "name": "_srcChainId",
          "type": "uint16"
        },
        {
          "internalType": "bytes",
          "name": "_srcAddress",
          "type": "bytes"
        },
        {
          "internalType": "uint64",
          "name": "_nonce",
          "type": "uint64"
        },
        {
          "internalType": "bytes",
          "name": "_payload",
          "type": "bytes"
        }
      ],
      "name": "retryMessage",
      "outputs": [],
      "stateMutability": "payable",
      "type": "function"
    },
    {
      "inputs": [
        {
          "internalType": "address",
          "name": "from",
          "type": "address"
        },
        {
          "internalType": "address",
          "name": "to",
          "type": "address"
        },
        {
          "internalType": "uint256",
          "name": "tokenId",
          "type": "uint256"
        }
      ],
      "name": "safeTransferFrom",
      "outputs": [],
      "stateMutability": "nonpayable",
      "type": "function"
    },
    {
      "inputs": [
        {
          "internalType": "address",
          "name": "from",
          "type": "address"
        },
        {
          "internalType": "address",
          "name": "to",
          "type": "address"
        },
        {
          "internalType": "uint256",
          "name": "tokenId",
          "type": "uint256"
        },
        {
          "internalType": "bytes",
          "name": "data",
          "type": "bytes"
        }
      ],
      "name": "safeTransferFrom",
      "outputs": [],
      "stateMutability": "nonpayable",
      "type": "function"
    },
    {
      "inputs": [
        {
          "internalType": "address",
          "name": "_from",
          "type": "address"
        },
        {
          "internalType": "uint16",
          "name": "_dstChainId",
          "type": "uint16"
        },
        {
          "internalType": "bytes",
          "name": "_toAddress",
          "type": "bytes"
        },
        {
          "internalType": "uint256[]",
          "name": "_tokenIds",
          "type": "uint256[]"
        },
        {
          "internalType": "address payable",
          "name": "_refundAddress",
          "type": "address"
        },
        {
          "internalType": "address",
          "name": "_zroPaymentAddress",
          "type": "address"
        },
        {
          "internalType": "bytes",
          "name": "_adapterParams",
          "type": "bytes"
        }
      ],
      "name": "sendBatchFrom",
      "outputs": [],
      "stateMutability": "payable",
      "type": "function"
    },
    {
      "inputs": [
        {
          "internalType": "address",
          "name": "_from",
          "type": "address"
        },
        {
          "internalType": "uint16",
          "name": "_dstChainId",
          "type": "uint16"
        },
        {
          "internalType": "bytes",
          "name": "_toAddress",
          "type": "bytes"
        },
        {
          "internalType": "uint256",
          "name": "_tokenId",
          "type": "uint256"
        },
        {
          "internalType": "address payable",
          "name": "_refundAddress",
          "type": "address"
        },
        {
          "internalType": "address",
          "name": "_zroPaymentAddress",
          "type": "address"
        },
        {
          "internalType": "bytes",
          "name": "_adapterParams",
          "type": "bytes"
        }
      ],
      "name": "sendFrom",
      "outputs": [],
      "stateMutability": "payable",
      "type": "function"
    },
    {
      "inputs": [
        {
          "internalType": "address",
          "name": "operator",
          "type": "address"
        },
        {
          "internalType": "bool",
          "name": "approved",
          "type": "bool"
        }
      ],
      "name": "setApprovalForAll",
      "outputs": [],
      "stateMutability": "nonpayable",
      "type": "function"
    },
    {
      "inputs": [
        {
          "internalType": "uint16",
          "name": "_version",
          "type": "uint16"
        },
        {
          "internalType": "uint16",
          "name": "_chainId",
          "type": "uint16"
        },
        {
          "internalType": "uint256",
          "name": "_configType",
          "type": "uint256"
        },
        {
          "internalType": "bytes",
          "name": "_config",
          "type": "bytes"
        }
      ],
      "name": "setConfig",
      "outputs": [],
      "stateMutability": "nonpayable",
      "type": "function"
    },
    {
      "inputs": [
        {
          "internalType": "uint16",
          "name": "_dstChainId",
          "type": "uint16"
        },
        {
          "internalType": "uint256",
          "name": "_dstChainIdToBatchLimit",
          "type": "uint256"
        }
      ],
      "name": "setDstChainIdToBatchLimit",
      "outputs": [],
      "stateMutability": "nonpayable",
      "type": "function"
    },
    {
      "inputs": [
        {
          "internalType": "uint16",
          "name": "_dstChainId",
          "type": "uint16"
        },
        {
          "internalType": "uint256",
          "name": "_dstChainIdToTransferGas",
          "type": "uint256"
        }
      ],
      "name": "setDstChainIdToTransferGas",
      "outputs": [],
      "stateMutability": "nonpayable",
      "type": "function"
    },
    {
      "inputs": [
        {
          "internalType": "uint256",
          "name": "_fee",
          "type": "uint256"
        }
      ],
      "name": "setFee",
      "outputs": [],
      "stateMutability": "nonpayable",
      "type": "function"
    },
    {
      "inputs": [
        {
          "internalType": "uint16",
          "name": "_dstChainId",
          "type": "uint16"
        },
        {
          "internalType": "uint16",
          "name": "_packetType",
          "type": "uint16"
        },
        {
          "internalType": "uint256",
          "name": "_minGas",
          "type": "uint256"
        }
      ],
      "name": "setMinDstGas",
      "outputs": [],
      "stateMutability": "nonpayable",
      "type": "function"
    },
    {
      "inputs": [
        {
          "internalType": "uint256",
          "name": "_minGasToTransferAndStore",
          "type": "uint256"
        }
      ],
      "name": "setMinGasToTransferAndStore",
      "outputs": [],
      "stateMutability": "nonpayable",
      "type": "function"
    },
    {
      "inputs": [
        {
          "internalType": "uint16",
          "name": "_dstChainId",
          "type": "uint16"
        },
        {
          "internalType": "uint256",
          "name": "_size",
          "type": "uint256"
        }
      ],
      "name": "setPayloadSizeLimit",
      "outputs": [],
      "stateMutability": "nonpayable",
      "type": "function"
    },
    {
      "inputs": [
        {
          "internalType": "address",
          "name": "_precrime",
          "type": "address"
        }
      ],
      "name": "setPrecrime",
      "outputs": [],
      "stateMutability": "nonpayable",
      "type": "function"
    },
    {
      "inputs": [
        {
          "internalType": "uint16",
          "name": "_version",
          "type": "uint16"
        }
      ],
      "name": "setReceiveVersion",
      "outputs": [],
      "stateMutability": "nonpayable",
      "type": "function"
    },
    {
      "inputs": [
        {
          "internalType": "uint16",
          "name": "_version",
          "type": "uint16"
        }
      ],
      "name": "setSendVersion",
      "outputs": [],
      "stateMutability": "nonpayable",
      "type": "function"
    },
    {
      "inputs": [
        {
          "internalType": "uint16",
          "name": "_remoteChainId",
          "type": "uint16"
        },
        {
          "internalType": "bytes",
          "name": "_path",
          "type": "bytes"
        }
      ],
      "name": "setTrustedRemote",
      "outputs": [],
      "stateMutability": "nonpayable",
      "type": "function"
    },
    {
      "inputs": [
        {
          "internalType": "uint16",
          "name": "_remoteChainId",
          "type": "uint16"
        },
        {
          "internalType": "bytes",
          "name": "_remoteAddress",
          "type": "bytes"
        }
      ],
      "name": "setTrustedRemoteAddress",
      "outputs": [],
      "stateMutability": "nonpayable",
      "type": "function"
    },
    {
      "inputs": [
        {
          "internalType": "bytes32",
          "name": "",
          "type": "bytes32"
        }
      ],
      "name": "storedCredits",
      "outputs": [
        {
          "internalType": "uint16",
          "name": "srcChainId",
          "type": "uint16"
        },
        {
          "internalType": "address",
          "name": "toAddress",
          "type": "address"
        },
        {
          "internalType": "uint256",
          "name": "index",
          "type": "uint256"
        },
        {
          "internalType": "bool",
          "name": "creditsRemain",
          "type": "bool"
        }
      ],
      "stateMutability": "view",
      "type": "function"
    },
    {
      "inputs": [
        {
          "internalType": "bytes4",
          "name": "interfaceId",
          "type": "bytes4"
        }
      ],
      "name": "supportsInterface",
      "outputs": [
        {
          "internalType": "bool",
          "name": "",
          "type": "bool"
        }
      ],
      "stateMutability": "view",
      "type": "function"
    },
    {
      "inputs": [],
      "name": "symbol",
      "outputs": [
        {
          "internalType": "string",
          "name": "",
          "type": "string"
        }
      ],
      "stateMutability": "view",
      "type": "function"
    },
    {
      "inputs": [
        {
          "internalType": "uint256",
          "name": "id",
          "type": "uint256"
        }
      ],
      "name": "tokenURI",
      "outputs": [
        {
          "internalType": "string",
          "name": "",
          "type": "string"
        }
      ],
      "stateMutability": "view",
      "type": "function"
    },
    {
      "inputs": [
        {
          "internalType": "address",
          "name": "from",
          "type": "address"
        },
        {
          "internalType": "address",
          "name": "to",
          "type": "address"
        },
        {
          "internalType": "uint256",
          "name": "tokenId",
          "type": "uint256"
        }
      ],
      "name": "transferFrom",
      "outputs": [],
      "stateMutability": "nonpayable",
      "type": "function"
    },
    {
      "inputs": [
        {
          "internalType": "address",
          "name": "newOwner",
          "type": "address"
        }
      ],
      "name": "transferOwnership",
      "outputs": [],
      "stateMutability": "nonpayable",
      "type": "function"
    },
    {
      "inputs": [
        {
          "internalType": "uint16",
          "name": "",
          "type": "uint16"
        }
      ],
      "name": "trustedRemoteLookup",
      "outputs": [
        {
          "internalType": "bytes",
          "name": "",
          "type": "bytes"
        }
      ],
      "stateMutability": "view",
      "type": "function"
    },
    {
      "inputs": [],
      "name": "withdraw",
      "outputs": [],
      "stateMutability": "payable",
      "type": "function"
    }
  ],
  "bytecode": "0x60a06040526509184e72a0006011553480156200001b57600080fd5b5060405162004e0a38038062004e0a8339810160408190526200003e91620001a2565b6040518060400160405280600e81526020016d15da185b1955195cdd0813d3919560921b815250604051806040016040528060048152602001631515d21360e21b8152508585838383838080620000a46200009e6200014e60201b60201c565b62000152565b6001600160a01b031660805250600160065581620001145760405162461bcd60e51b8152602060048201526024808201527f6d696e476173546f5472616e73666572416e6453746f7265206d7573742062656044820152630203e20360e41b606482015260840160405180910390fd5b50600755600b62000126838262000294565b50600c62000135828262000294565b5050506012959095555050506013555062000360915050565b3390565b600080546001600160a01b038381166001600160a01b0319831681178455604051919092169283917f8be0079c531659141344cd1fd0a4f28419497f9722a3daafe3b4186f6b6457e09190a35050565b60008060008060808587031215620001b957600080fd5b845160208601519094506001600160a01b0381168114620001d957600080fd5b6040860151606090960151949790965092505050565b634e487b7160e01b600052604160045260246000fd5b600181811c908216806200021a57607f821691505b6020821081036200023b57634e487b7160e01b600052602260045260246000fd5b50919050565b601f8211156200028f57600081815260208120601f850160051c810160208610156200026a5750805b601f850160051c820191505b818110156200028b5782815560010162000276565b5050505b505050565b81516001600160401b03811115620002b057620002b0620001ef565b620002c881620002c1845462000205565b8462000241565b602080601f831160018114620003005760008415620002e75750858301515b600019600386901b1c1916600185901b1785556200028b565b600085815260208120601f198616915b82811015620003315788860151825594840194600190910190840162000310565b5085821015620003505787850151600019600388901b60f8161c191681555b5050505050600190811b01905550565b608051614a4f620003bb6000396000818161095f01528181610b8601528181610e8a0152818161110e015281816113b301528181611d030152818161207201528181612235015281816123680152612a270152614a4f6000f3fe60806040526004361061038b5760003560e01c80637533d788116101dc578063c446183411610102578063df2a5b3b116100a0578063f23536411161006f578063f235364114610af6578063f2fde38b14610b16578063f5ecbdbc14610b36578063fa25f9b614610b5657600080fd5b8063df2a5b3b14610a80578063e1d4c87014610aa0578063e985e9c514610ab6578063eb8d72b714610ad657600080fd5b8063d12473a5116100dc578063d12473a514610a17578063d1deba1f14610a37578063da09f15d14610a4a578063ddca3f4314610a6a57600080fd5b8063c4461834146109c1578063c87b56dd146109d7578063cbed8b9c146109f757600080fd5b80639f38369a1161017a578063af3fb21c11610149578063af3fb21c14610925578063b353aaa71461094d578063b88d4fde14610981578063baf3292d146109a157600080fd5b80639f38369a146108b2578063a22cb465146108d2578063a6c3d165146108f2578063ab3ffb931461091257600080fd5b80638ffa1f2a116101b65780638ffa1f2a1461083d578063950c8a741461085d57806395d89b411461087d5780639ea5d6b11461089257600080fd5b80637533d788146107c75780638cfd8f5c146107e75780638da5cb5b1461081f57600080fd5b80633d8b38f6116102c1578063519056361161025f57806369fe0e2d1161022e57806369fe0e2d1461075c5780636aa99da31461077c57806370a0823114610792578063715018a6146107b257600080fd5b806351905636146106ba5780635b8c41e6146106cd5780636352211e1461071c57806366ad5c8a1461073c57600080fd5b806342d65a8d1161029b57806342d65a8d1461064457806348288190146106645780634ac3f4ff1461067a5780635154c0b4146106a757600080fd5b80633d8b38f6146105c95780633f1f4fa4146105e957806342842e0e1461062457600080fd5b80630df374831161032e57806322a3ecf91161030857806322a3ecf9146104e957806323b872dd1461056c5780632a205e3d1461058c5780633ccfd60b146105c157600080fd5b80630df37483146104a157806310ddb137146104c15780631249c58b146104e157600080fd5b806307e0db171161036a57806307e0db1714610409578063081812fc14610429578063095ea7b3146104615780630b4cad4c1461048157600080fd5b80621d35671461039057806301ffc9a7146103b257806306fdde03146103e7575b600080fd5b34801561039c57600080fd5b506103b06103ab36600461384c565b610b83565b005b3480156103be57600080fd5b506103d26103cd3660046138f5565b610db4565b60405190151581526020015b60405180910390f35b3480156103f357600080fd5b506103fc610dd7565b6040516103de9190613962565b34801561041557600080fd5b506103b0610424366004613975565b610e69565b34801561043557600080fd5b50610449610444366004613990565b610ef2565b6040516001600160a01b0390911681526020016103de565b34801561046d57600080fd5b506103b061047c3660046139c9565b610f19565b34801561048d57600080fd5b506103b061049c366004613990565b61102e565b3480156104ad57600080fd5b506103b06104bc3660046139f5565b6110ce565b3480156104cd57600080fd5b506103b06104dc366004613975565b6110ed565b6103b0611145565b3480156104f557600080fd5b5061053d610504366004613990565b600a6020526000908152604090208054600182015460029092015461ffff821692620100009092046001600160a01b0316919060ff1684565b6040805161ffff90951685526001600160a01b03909316602085015291830152151560608201526080016103de565b34801561057857600080fd5b506103b0610587366004613a11565b6111f8565b34801561059857600080fd5b506105ac6105a7366004613b25565b61122a565b604080519283526020830191909152016103de565b6103b0611250565b3480156105d557600080fd5b506103d26105e4366004613bb3565b6112ad565b3480156105f557600080fd5b50610616610604366004613975565b60036020526000908152604090205481565b6040519081526020016103de565b34801561063057600080fd5b506103b061063f366004613a11565b611379565b34801561065057600080fd5b506103b061065f366004613bb3565b611394565b34801561067057600080fd5b5061061660075481565b34801561068657600080fd5b50610616610695366004613975565b60086020526000908152604090205481565b6103b06106b5366004613c05565b61141a565b6103b06106c8366004613c64565b61146e565b3480156106d957600080fd5b506106166106e8366004613d1d565b6005602090815260009384526040808520845180860184018051928152908401958401959095209452929052825290205481565b34801561072857600080fd5b50610449610737366004613990565b611485565b34801561074857600080fd5b506103b061075736600461384c565b6114e5565b34801561076857600080fd5b506103b0610777366004613990565b6115c1565b34801561078857600080fd5b5061061660125481565b34801561079e57600080fd5b506106166107ad366004613d7a565b6115ce565b3480156107be57600080fd5b506103b0611654565b3480156107d357600080fd5b506103fc6107e2366004613975565b611668565b3480156107f357600080fd5b50610616610802366004613d97565b600260209081526000928352604080842090915290825290205481565b34801561082b57600080fd5b506000546001600160a01b0316610449565b34801561084957600080fd5b506103b0610858366004613dca565b611702565b34801561086957600080fd5b50600454610449906001600160a01b031681565b34801561088957600080fd5b506103fc611999565b34801561089e57600080fd5b506103b06108ad3660046139f5565b6119a8565b3480156108be57600080fd5b506103fc6108cd366004613975565b611a5f565b3480156108de57600080fd5b506103b06108ed366004613dfe565b611b75565b3480156108fe57600080fd5b506103b061090d366004613bb3565b611b84565b6103b0610920366004613eb3565b611c0d565b34801561093157600080fd5b5061093a600181565b60405161ffff90911681526020016103de565b34801561095957600080fd5b506104497f000000000000000000000000000000000000000000000000000000000000000081565b34801561098d57600080fd5b506103b061099c366004613f68565b611c1c565b3480156109ad57600080fd5b506103b06109bc366004613d7a565b611c54565b3480156109cd57600080fd5b5061061661271081565b3480156109e357600080fd5b506103fc6109f2366004613990565b611caa565b348015610a0357600080fd5b506103b0610a12366004613fd3565b611ce4565b348015610a2357600080fd5b506103b0610a323660046139f5565b611d79565b6103b0610a4536600461384c565b611e29565b348015610a5657600080fd5b506105ac610a65366004614041565b61203f565b348015610a7657600080fd5b5061061660115481565b348015610a8c57600080fd5b506103b0610a9b36600461406d565b612104565b348015610aac57600080fd5b5061061660135481565b348015610ac257600080fd5b506103d2610ad13660046140a9565b61216e565b348015610ae257600080fd5b506103b0610af1366004613bb3565b61219c565b348015610b0257600080fd5b506105ac610b113660046140e2565b6121f6565b348015610b2257600080fd5b506103b0610b31366004613d7a565b6122c1565b348015610b4257600080fd5b506103fc610b5136600461415b565b612337565b348015610b6257600080fd5b50610616610b71366004613975565b60096020526000908152604090205481565b337f00000000000000000000000000000000000000000000000000000000000000006001600160a01b031614610c005760405162461bcd60e51b815260206004820152601e60248201527f4c7a4170703a20696e76616c696420656e64706f696e742063616c6c6572000060448201526064015b60405180910390fd5b61ffff861660009081526001602052604081208054610c1e906141a8565b80601f0160208091040260200160405190810160405280929190818152602001828054610c4a906141a8565b8015610c975780601f10610c6c57610100808354040283529160200191610c97565b820191906000526020600020905b815481529060010190602001808311610c7a57829003601f168201915b50505050509050805186869050148015610cb2575060008151115b8015610cda575080516020820120604051610cd090889088906141e2565b6040518091039020145b610d355760405162461bcd60e51b815260206004820152602660248201527f4c7a4170703a20696e76616c696420736f757263652073656e64696e6720636f6044820152651b9d1c9858dd60d21b6064820152608401610bf7565b610dab8787878080601f01602080910402602001604051908101604052809392919081815260200183838082843760009201919091525050604080516020601f8a018190048102820181019092528881528a9350915088908890819084018382808284376000920191909152506123ea92505050565b50505050505050565b60006001600160e01b031982161580610dd15750610dd182612463565b92915050565b6060600b8054610de6906141a8565b80601f0160208091040260200160405190810160405280929190818152602001828054610e12906141a8565b8015610e5f5780601f10610e3457610100808354040283529160200191610e5f565b820191906000526020600020905b815481529060010190602001808311610e4257829003601f168201915b5050505050905090565b610e716124a3565b6040516307e0db1760e01b815261ffff821660048201527f00000000000000000000000000000000000000000000000000000000000000006001600160a01b0316906307e0db17906024015b600060405180830381600087803b158015610ed757600080fd5b505af1158015610eeb573d6000803e3d6000fd5b5050505050565b6000610efd826124fd565b506000908152600f60205260409020546001600160a01b031690565b6000610f2482611485565b9050806001600160a01b0316836001600160a01b031603610f915760405162461bcd60e51b815260206004820152602160248201527f4552433732313a20617070726f76616c20746f2063757272656e74206f776e656044820152603960f91b6064820152608401610bf7565b336001600160a01b0382161480610fad5750610fad813361216e565b61101f5760405162461bcd60e51b815260206004820152603e60248201527f4552433732313a20617070726f76652063616c6c6572206973206e6f7420746f60448201527f6b656e206f776e6572206e6f7220617070726f76656420666f7220616c6c00006064820152608401610bf7565b611029838361255c565b505050565b6110366124a3565b600081116110925760405162461bcd60e51b8152602060048201526024808201527f6d696e476173546f5472616e73666572416e6453746f7265206d7573742062656044820152630203e20360e41b6064820152608401610bf7565b60078190556040518181527ffebbc4f8bb9ec2313950c718d43123124b15778efda4c1f1d529de2995b4f34d906020015b60405180910390a150565b6110d66124a3565b61ffff909116600090815260036020526040902055565b6110f56124a3565b6040516310ddb13760e01b815261ffff821660048201527f00000000000000000000000000000000000000000000000000000000000000006001600160a01b0316906310ddb13790602401610ebd565b60115434101561118f5760405162461bcd60e51b8152602060048201526015602482015274139bdd08195b9bdd59da08195d1a195c881cd95b9d605a1b6044820152606401610bf7565b60135460125411156111d45760405162461bcd60e51b815260206004820152600e60248201526d2a37b79036b0b73c961031393abb60911b6044820152606401610bf7565b6012805490819060006111e683614208565b91905055506111f533826125ca565b50565b611203335b826125e4565b61121f5760405162461bcd60e51b8152600401610bf790614221565b611029838383612642565b600080611242878761123b886127de565b87876121f6565b915091509550959350505050565b6112586124a3565b604051600090339047908381818185875af1925050503d806000811461129a576040519150601f19603f3d011682016040523d82523d6000602084013e61129f565b606091505b50509050806111f557600080fd5b61ffff8316600090815260016020526040812080548291906112ce906141a8565b80601f01602080910402602001604051908101604052809291908181526020018280546112fa906141a8565b80156113475780601f1061131c57610100808354040283529160200191611347565b820191906000526020600020905b81548152906001019060200180831161132a57829003601f168201915b50505050509050838360405161135e9291906141e2565b60405180910390208180519060200120149150509392505050565b61102983838360405180602001604052806000815250611c1c565b61139c6124a3565b6040516342d65a8d60e01b81526001600160a01b037f000000000000000000000000000000000000000000000000000000000000000016906342d65a8d906113ec90869086908690600401614298565b600060405180830381600087803b15801561140657600080fd5b505af1158015610dab573d6000803e3d6000fd5b61ffff831660009081526009602052604090205461143e9084906001908490612829565b604080513360208201526000818301528151808203830181526060909101909152611029908490308585346128fe565b610dab87878761147d886127de565b878787612aa3565b6000818152600d60205260408120546001600160a01b031680610dd15760405162461bcd60e51b8152602060048201526018602482015277115490cdcc8c4e881a5b9d985b1a59081d1bdad95b88125160421b6044820152606401610bf7565b3330146115435760405162461bcd60e51b815260206004820152602660248201527f4e6f6e626c6f636b696e674c7a4170703a2063616c6c6572206d7573742062656044820152650204c7a4170760d41b6064820152608401610bf7565b6115b98686868080601f01602080910402602001604051908101604052809392919081815260200183838082843760009201919091525050604080516020601f890181900481028201810190925287815289935091508790879081908401838280828437600092019190915250612c7792505050565b505050505050565b6115c96124a3565b601155565b60006001600160a01b0382166116385760405162461bcd60e51b815260206004820152602960248201527f4552433732313a2061646472657373207a65726f206973206e6f7420612076616044820152683634b21037bbb732b960b91b6064820152608401610bf7565b506001600160a01b03166000908152600e602052604090205490565b61165c6124a3565b6116666000612df6565b565b60016020526000908152604090208054611681906141a8565b80601f01602080910402602001604051908101604052809291908181526020018280546116ad906141a8565b80156116fa5780601f106116cf576101008083540402835291602001916116fa565b820191906000526020600020905b8154815290600101906020018083116116dd57829003601f168201915b505050505081565b6002600654036117545760405162461bcd60e51b815260206004820152601f60248201527f5265656e7472616e637947756172643a207265656e7472616e742063616c6c006044820152606401610bf7565b6002600681905581516020808401919091206000818152600a90925260409091209091015460ff166117bc5760405162461bcd60e51b81526020600482015260116024820152701b9bc818dc99591a5d1cc81cdd1bdc9959607a1b6044820152606401610bf7565b6000828060200190518101906117d291906142fb565b6000848152600a60205260408120805460019091015492945090925061180e9161ffff8216916201000090046001600160a01b03169085612e46565b6000848152600a602052604090206001015490915081116118835760405162461bcd60e51b815260206004820152602960248201527f6e6f7420656e6f7567682067617320746f2070726f6365737320637265646974604482015268103a3930b739b332b960b91b6064820152608401610bf7565b815181036118fa576000838152600a602052604080822080546001600160b01b031916815560018101929092556002909101805460ff19169055517fd7be02b8dd0d27bd0517a9cb4d7469ce27df4313821ae5ec1ff69acc594ba233906118ed9085815260200190565b60405180910390a161198e565b604080516080810182526000858152600a6020818152848320805461ffff80821687526001600160a01b03620100008084048216868a019081529989018b8152600160608b01818152998f90529790965297519851169096026001600160b01b03199091169690951695909517939093178455915191830191909155516002909101805491151560ff199092169190911790555b505060016006555050565b6060600c8054610de6906141a8565b6119b06124a3565b60008111611a0b5760405162461bcd60e51b815260206004820152602260248201527f647374436861696e4964546f42617463684c696d6974206d757374206265203e604482015261020360f41b6064820152608401610bf7565b61ffff8216600081815260086020908152604091829020849055815192835282018390527f7315f7654d594ead24a30160ed9ba2d23247f543016b918343591e93d7afdb6d91015b60405180910390a15050565b61ffff8116600090815260016020526040812080546060929190611a82906141a8565b80601f0160208091040260200160405190810160405280929190818152602001828054611aae906141a8565b8015611afb5780601f10611ad057610100808354040283529160200191611afb565b820191906000526020600020905b815481529060010190602001808311611ade57829003601f168201915b505050505090508051600003611b535760405162461bcd60e51b815260206004820152601d60248201527f4c7a4170703a206e6f20747275737465642070617468207265636f72640000006044820152606401610bf7565b611b6e600060148351611b6691906143b5565b839190612e92565b9392505050565b611b80338383612f9f565b5050565b611b8c6124a3565b818130604051602001611ba1939291906143c8565b60408051601f1981840301815291815261ffff8516600090815260016020522090611bcc9082614434565b507f8c0400cfe2d1199b1a725c78960bcc2a344d869b80590d0f2bd005db15a572ce838383604051611c0093929190614298565b60405180910390a1505050565b610dab87878787878787612aa3565b611c2633836125e4565b611c425760405162461bcd60e51b8152600401610bf790614221565b611c4e8484848461306d565b50505050565b611c5c6124a3565b600480546001600160a01b0319166001600160a01b0383169081179091556040519081527f5db758e995a17ec1ad84bdef7e8c3293a0bd6179bcce400dff5d4c3d87db726b906020016110c3565b6060611cb46130a0565b611cbd836130c0565b604051602001611cce9291906144f3565b6040516020818303038152906040529050919050565b611cec6124a3565b6040516332fb62e760e21b81526001600160a01b037f0000000000000000000000000000000000000000000000000000000000000000169063cbed8b9c90611d409088908890889088908890600401614532565b600060405180830381600087803b158015611d5a57600080fd5b505af1158015611d6e573d6000803e3d6000fd5b505050505050505050565b611d816124a3565b60008111611ddd5760405162461bcd60e51b815260206004820152602360248201527f647374436861696e4964546f5472616e73666572476173206d7573742062652060448201526203e20360ec1b6064820152608401610bf7565b61ffff8216600081815260096020908152604091829020849055815192835282018390527fc46df2983228ac2d9754e94a0d565e6671665dc8ad38602bc8e544f0685a29fb9101611a53565b61ffff86166000908152600560205260408082209051611e4c90889088906141e2565b90815260408051602092819003830190206001600160401b03871660009081529252902054905080611ecc5760405162461bcd60e51b815260206004820152602360248201527f4e6f6e626c6f636b696e674c7a4170703a206e6f2073746f726564206d65737360448201526261676560e81b6064820152608401610bf7565b808383604051611edd9291906141e2565b604051809103902014611f3c5760405162461bcd60e51b815260206004820152602160248201527f4e6f6e626c6f636b696e674c7a4170703a20696e76616c6964207061796c6f616044820152601960fa1b6064820152608401610bf7565b61ffff87166000908152600560205260408082209051611f5f90899089906141e2565b90815260408051602092819003830181206001600160401b038916600090815290845282902093909355601f88018290048202830182019052868252611ff7918991899089908190840183828082843760009201919091525050604080516020601f8a018190048102820181019092528881528a935091508890889081908401838280828437600092019190915250612c7792505050565b7fc264d91f3adc5588250e1551f547752ca0cfa8f6b530d243b9f9f4cab10ea8e5878787878560405161202e95949392919061456b565b60405180910390a150505050505050565b604080513360208201526000818301819052825180830384018152606083019384905263040a7bb160e41b9093529182917f00000000000000000000000000000000000000000000000000000000000000006001600160a01b0316906340a7bb10906120b7908990309086908b908b906064016145a6565b6040805180830381865afa1580156120d3573d6000803e3d6000fd5b505050506040513d601f19601f820116820180604052508101906120f791906145fa565b9250925050935093915050565b61210c6124a3565b61ffff83811660008181526002602090815260408083209487168084529482529182902085905581519283528201929092529081018290527f9d5c7c0b934da8fefa9c7760c98383778a12dfbfc0c3b3106518f43fb9508ac090606001611c00565b6001600160a01b03918216600090815260106020908152604080832093909416825291909152205460ff1690565b6121a46124a3565b61ffff831660009081526001602052604090206121c282848361461e565b507ffa41487ad5d6728f0b19276fa1eddc16558578f5109fc39d2dc33c3230470dab838383604051611c0093929190614298565b6000806000868660405160200161220e929190614718565b60408051601f198184030181529082905263040a7bb160e41b825291506001600160a01b037f000000000000000000000000000000000000000000000000000000000000000016906340a7bb1090612272908b90309086908b908b906004016145a6565b6040805180830381865afa15801561228e573d6000803e3d6000fd5b505050506040513d601f19601f820116820180604052508101906122b291906145fa565b92509250509550959350505050565b6122c96124a3565b6001600160a01b03811661232e5760405162461bcd60e51b815260206004820152602660248201527f4f776e61626c653a206e6577206f776e657220697320746865207a65726f206160448201526564647265737360d01b6064820152608401610bf7565b6111f581612df6565b604051633d7b2f6f60e21b815261ffff808616600483015284166024820152306044820152606481018290526060907f00000000000000000000000000000000000000000000000000000000000000006001600160a01b03169063f5ecbdbc90608401600060405180830381865afa1580156123b7573d6000803e3d6000fd5b505050506040513d6000823e601f3d908101601f191682016040526123df9190810190614746565b90505b949350505050565b60008061244d5a60966366ad5c8a60e01b89898989604051602401612412949392919061477a565b60408051601f198184030181529190526020810180516001600160e01b03166001600160e01b031990931692909217909152309291906131c0565b91509150816115b9576115b9868686868561324a565b60006001600160e01b031982166380ac58cd60e01b148061249457506001600160e01b03198216635b5e139f60e01b145b80610dd15750610dd1826132e7565b6000546001600160a01b031633146116665760405162461bcd60e51b815260206004820181905260248201527f4f776e61626c653a2063616c6c6572206973206e6f7420746865206f776e65726044820152606401610bf7565b6000818152600d60205260409020546001600160a01b03166111f55760405162461bcd60e51b8152602060048201526018602482015277115490cdcc8c4e881a5b9d985b1a59081d1bdad95b88125160421b6044820152606401610bf7565b6000818152600f6020526040902080546001600160a01b0319166001600160a01b038416908117909155819061259182611485565b6001600160a01b03167f8c5be1e5ebec7d5bd14f71427d1e84f3dd0314c0f7b2291e5b200ac8c7c3b92560405160405180910390a45050565b611b8082826040518060200160405280600081525061331c565b6000806125f083611485565b9050806001600160a01b0316846001600160a01b031614806126175750612617818561216e565b806123e25750836001600160a01b031661263084610ef2565b6001600160a01b031614949350505050565b826001600160a01b031661265582611485565b6001600160a01b0316146126b95760405162461bcd60e51b815260206004820152602560248201527f4552433732313a207472616e736665722066726f6d20696e636f72726563742060448201526437bbb732b960d91b6064820152608401610bf7565b6001600160a01b03821661271b5760405162461bcd60e51b8152602060048201526024808201527f4552433732313a207472616e7366657220746f20746865207a65726f206164646044820152637265737360e01b6064820152608401610bf7565b61272660008261255c565b6001600160a01b0383166000908152600e6020526040812080546001929061274f9084906143b5565b90915550506001600160a01b0382166000908152600e6020526040812080546001929061277d9084906147b8565b90915550506000818152600d602052604080822080546001600160a01b0319166001600160a01b0386811691821790925591518493918716917fddf252ad1be2c89b69c2b068fc378daa952ba7f163c4a11628f55a4df523b3ef91a4505050565b60408051600180825281830190925260609160009190602080830190803683370190505090508281600081518110612818576128186147cb565b602090810291909101015292915050565b60006128348361334f565b61ffff808716600090815260026020908152604080832093891683529290522054909150806128a55760405162461bcd60e51b815260206004820152601a60248201527f4c7a4170703a206d696e4761734c696d6974206e6f74207365740000000000006044820152606401610bf7565b6128af83826147b8565b8210156115b95760405162461bcd60e51b815260206004820152601b60248201527f4c7a4170703a20676173206c696d697420697320746f6f206c6f7700000000006044820152606401610bf7565b61ffff86166000908152600160205260408120805461291c906141a8565b80601f0160208091040260200160405190810160405280929190818152602001828054612948906141a8565b80156129955780601f1061296a57610100808354040283529160200191612995565b820191906000526020600020905b81548152906001019060200180831161297857829003601f168201915b505050505090508051600003612a065760405162461bcd60e51b815260206004820152603060248201527f4c7a4170703a2064657374696e6174696f6e20636861696e206973206e6f742060448201526f61207472757374656420736f7572636560801b6064820152608401610bf7565b612a118787516133ab565b60405162c5803160e81b81526001600160a01b037f0000000000000000000000000000000000000000000000000000000000000000169063c5803100908490612a68908b9086908c908c908c908c906004016147e1565b6000604051808303818588803b158015612a8157600080fd5b505af1158015612a95573d6000803e3d6000fd5b505050505050505050505050565b6000845111612aea5760405162461bcd60e51b8152602060048201526013602482015272746f6b656e4964735b5d20697320656d70747960681b6044820152606401610bf7565b835160011480612b0e575061ffff8616600090815260086020526040902054845111155b612b655760405162461bcd60e51b815260206004820152602260248201527f62617463682073697a65206578636565647320647374206261746368206c696d6044820152611a5d60f21b6064820152608401610bf7565b60005b8451811015612ba857612b96888888888581518110612b8957612b896147cb565b602002602001015161341c565b80612ba081614208565b915050612b68565b5060008585604051602001612bbe929190614718565b6040516020818303038152906040529050612c03876001848851600960008d61ffff1661ffff16815260200190815260200160002054612bfe9190614848565b612829565b612c118782868686346128fe565b85604051612c1f919061485f565b6040518091039020886001600160a01b03168861ffff167fe1b87c47fdeb4f9cbadbca9df3af7aba453bb6e501075d0440d88125b711522a88604051612c65919061487b565b60405180910390a45050505050505050565b60008082806020019051810190612c8e91906142fb565b9150915080600081518110612ca557612ca56147cb565b6020026020010151600003612cbb575050611c4e565b60148201516000612cce88838386612e46565b90508251811015612da25784516020808701919091206040805160808101825261ffff808d1682526001600160a01b038088168387019081528385018881526001606086018181526000898152600a909a529887902095518654935190941662010000026001600160b01b03199093169390941692909217178355519082015592516002909301805493151560ff199094169390931790925590517f10e0b70d256bccc84b7027506978bd8b68984a870788b93b479def144c839ad790612d98908390899061488e565b60405180910390a1505b816001600160a01b031687604051612dba919061485f565b60405180910390208961ffff167f5b821db8a46f8ecbe1941ba2f51cfeea9643268b56631f70d45e2a745d99026586604051612c65919061487b565b600080546001600160a01b038381166001600160a01b0319831681178455604051919092169283917f8be0079c531659141344cd1fd0a4f28419497f9722a3daafe3b4186f6b6457e09190a35050565b6000825b82518110156123df576007545a106123df57612e808686858481518110612e7357612e736147cb565b6020026020010151613507565b80612e8a81614208565b915050612e4a565b606081612ea081601f6147b8565b1015612edf5760405162461bcd60e51b815260206004820152600e60248201526d736c6963655f6f766572666c6f7760901b6044820152606401610bf7565b612ee982846147b8565b84511015612f2d5760405162461bcd60e51b8152602060048201526011602482015270736c6963655f6f75744f66426f756e647360781b6044820152606401610bf7565b606082158015612f4c5760405191506000825260208201604052612f96565b6040519150601f8416801560200281840101858101878315602002848b0101015b81831015612f85578051835260209283019201612f6d565b5050858452601f01601f1916604052505b50949350505050565b816001600160a01b0316836001600160a01b0316036130005760405162461bcd60e51b815260206004820152601960248201527f4552433732313a20617070726f766520746f2063616c6c6572000000000000006044820152606401610bf7565b6001600160a01b03838116600081815260106020908152604080832094871680845294825291829020805460ff191686151590811790915591519182527f17307eab39ab6107e8899845ad3d59bd9653f200f220920489ca2b5937696c31910160405180910390a3505050565b613078848484612642565b61308484848484613596565b611c4e5760405162461bcd60e51b8152600401610bf7906148a7565b60606040518060600160405280603681526020016149e460369139905090565b6060816000036130e75750506040805180820190915260018152600360fc1b602082015290565b8160005b811561311157806130fb81614208565b915061310a9050600a8361490f565b91506130eb565b6000816001600160401b0381111561312b5761312b613a52565b6040519080825280601f01601f191660200182016040528015613155576020820181803683370190505b5090505b84156123e25761316a6001836143b5565b9150613177600a86614923565b6131829060306147b8565b60f81b818381518110613197576131976147cb565b60200101906001600160f81b031916908160001a9053506131b9600a8661490f565b9450613159565b6000606060008060008661ffff166001600160401b038111156131e5576131e5613a52565b6040519080825280601f01601f19166020018201604052801561320f576020820181803683370190505b50905060008087516020890160008d8df191503d925086831115613231578692505b828152826000602083013e909890975095505050505050565b8180519060200120600560008761ffff1661ffff1681526020019081526020016000208560405161327b919061485f565b9081526040805191829003602090810183206001600160401b0388166000908152915220919091557fe183f33de2837795525b4792ca4cd60535bd77c53b7e7030060bfcf5734d6b0c906132d89087908790879087908790614937565b60405180910390a15050505050565b60006001600160e01b031982166322bac5d960e01b1480610dd157506301ffc9a760e01b6001600160e01b0319831614610dd1565b6133268383613694565b6133336000848484613596565b6110295760405162461bcd60e51b8152600401610bf7906148a7565b60006022825110156133a35760405162461bcd60e51b815260206004820152601c60248201527f4c7a4170703a20696e76616c69642061646170746572506172616d73000000006044820152606401610bf7565b506022015190565b61ffff8216600090815260036020526040812054908190036133cc57506127105b808211156110295760405162461bcd60e51b815260206004820181905260248201527f4c7a4170703a207061796c6f61642073697a6520697320746f6f206c617267656044820152606401610bf7565b613425336111fd565b6134885760405162461bcd60e51b815260206004820152602e60248201527f4f4e46543732313a2073656e642063616c6c6572206973206e6f74206f776e6560448201526d1c881b9bdc88185c1c1c9bdd995960921b6064820152608401610bf7565b836001600160a01b031661349b82611485565b6001600160a01b0316146134fc5760405162461bcd60e51b815260206004820152602260248201527f4f4e46543732313a2073656e642066726f6d20696e636f7272656374206f776e60448201526132b960f11b6064820152608401610bf7565b611c4e843083612642565b6000818152600d60205260409020546001600160a01b0316158061355c57506000818152600d60205260409020546001600160a01b03161515801561355c57503061355182611485565b6001600160a01b0316145b61356557600080fd5b6000818152600d60205260409020546001600160a01b031661358b5761102982826125ca565b611029308383612642565b60006001600160a01b0384163b1561368c57604051630a85bd0160e11b81526001600160a01b0385169063150b7a02906135da903390899088908890600401614989565b6020604051808303816000875af1925050508015613615575060408051601f3d908101601f19168201909252613612918101906149c6565b60015b613672573d808015613643576040519150601f19603f3d011682016040523d82523d6000602084013e613648565b606091505b50805160000361366a5760405162461bcd60e51b8152600401610bf7906148a7565b805181602001fd5b6001600160e01b031916630a85bd0160e11b1490506123e2565b5060016123e2565b6001600160a01b0382166136ea5760405162461bcd60e51b815260206004820181905260248201527f4552433732313a206d696e7420746f20746865207a65726f20616464726573736044820152606401610bf7565b6000818152600d60205260409020546001600160a01b03161561374f5760405162461bcd60e51b815260206004820152601c60248201527f4552433732313a20746f6b656e20616c7265616479206d696e746564000000006044820152606401610bf7565b6001600160a01b0382166000908152600e602052604081208054600192906137789084906147b8565b90915550506000818152600d602052604080822080546001600160a01b0319166001600160a01b03861690811790915590518392907fddf252ad1be2c89b69c2b068fc378daa952ba7f163c4a11628f55a4df523b3ef908290a45050565b803561ffff811681146137e857600080fd5b919050565b60008083601f8401126137ff57600080fd5b5081356001600160401b0381111561381657600080fd5b60208301915083602082850101111561382e57600080fd5b9250929050565b80356001600160401b03811681146137e857600080fd5b6000806000806000806080878903121561386557600080fd5b61386e876137d6565b955060208701356001600160401b038082111561388a57600080fd5b6138968a838b016137ed565b90975095508591506138aa60408a01613835565b945060608901359150808211156138c057600080fd5b506138cd89828a016137ed565b979a9699509497509295939492505050565b6001600160e01b0319811681146111f557600080fd5b60006020828403121561390757600080fd5b8135611b6e816138df565b60005b8381101561392d578181015183820152602001613915565b50506000910152565b6000815180845261394e816020860160208601613912565b601f01601f19169290920160200192915050565b602081526000611b6e6020830184613936565b60006020828403121561398757600080fd5b611b6e826137d6565b6000602082840312156139a257600080fd5b5035919050565b6001600160a01b03811681146111f557600080fd5b80356137e8816139a9565b600080604083850312156139dc57600080fd5b82356139e7816139a9565b946020939093013593505050565b60008060408385031215613a0857600080fd5b6139e7836137d6565b600080600060608486031215613a2657600080fd5b8335613a31816139a9565b92506020840135613a41816139a9565b929592945050506040919091013590565b634e487b7160e01b600052604160045260246000fd5b604051601f8201601f191681016001600160401b0381118282101715613a9057613a90613a52565b604052919050565b60006001600160401b03821115613ab157613ab1613a52565b50601f01601f191660200190565b600082601f830112613ad057600080fd5b8135613ae3613ade82613a98565b613a68565b818152846020838601011115613af857600080fd5b816020850160208301376000918101602001919091529392505050565b803580151581146137e857600080fd5b600080600080600060a08688031215613b3d57600080fd5b613b46866137d6565b945060208601356001600160401b0380821115613b6257600080fd5b613b6e89838a01613abf565b955060408801359450613b8360608901613b15565b93506080880135915080821115613b9957600080fd5b50613ba688828901613abf565b9150509295509295909350565b600080600060408486031215613bc857600080fd5b613bd1846137d6565b925060208401356001600160401b03811115613bec57600080fd5b613bf8868287016137ed565b9497909650939450505050565b600080600060608486031215613c1a57600080fd5b613c23846137d6565b92506020840135613c33816139a9565b915060408401356001600160401b03811115613c4e57600080fd5b613c5a86828701613abf565b9150509250925092565b600080600080600080600060e0888a031215613c7f57600080fd5b8735613c8a816139a9565b9650613c98602089016137d6565b955060408801356001600160401b0380821115613cb457600080fd5b613cc08b838c01613abf565b965060608a0135955060808a01359150613cd9826139a9565b90935060a089013590613ceb826139a9565b90925060c08901359080821115613d0157600080fd5b50613d0e8a828b01613abf565b91505092959891949750929550565b600080600060608486031215613d3257600080fd5b613d3b846137d6565b925060208401356001600160401b03811115613d5657600080fd5b613d6286828701613abf565b925050613d7160408501613835565b90509250925092565b600060208284031215613d8c57600080fd5b8135611b6e816139a9565b60008060408385031215613daa57600080fd5b613db3836137d6565b9150613dc1602084016137d6565b90509250929050565b600060208284031215613ddc57600080fd5b81356001600160401b03811115613df257600080fd5b6123e284828501613abf565b60008060408385031215613e1157600080fd5b8235613e1c816139a9565b9150613dc160208401613b15565b60006001600160401b03821115613e4357613e43613a52565b5060051b60200190565b600082601f830112613e5e57600080fd5b81356020613e6e613ade83613e2a565b82815260059290921b84018101918181019086841115613e8d57600080fd5b8286015b84811015613ea85780358352918301918301613e91565b509695505050505050565b600080600080600080600060e0888a031215613ece57600080fd5b8735613ed9816139a9565b9650613ee7602089016137d6565b955060408801356001600160401b0380821115613f0357600080fd5b613f0f8b838c01613abf565b965060608a0135915080821115613f2557600080fd5b613f318b838c01613e4d565b955060808a01359150613f43826139a9565b819450613f5260a08b016139be565b935060c08a0135915080821115613d0157600080fd5b60008060008060808587031215613f7e57600080fd5b8435613f89816139a9565b93506020850135613f99816139a9565b92506040850135915060608501356001600160401b03811115613fbb57600080fd5b613fc787828801613abf565b91505092959194509250565b600080600080600060808688031215613feb57600080fd5b613ff4866137d6565b9450614002602087016137d6565b93506040860135925060608601356001600160401b0381111561402457600080fd5b614030888289016137ed565b969995985093965092949392505050565b60008060006060848603121561405657600080fd5b61405f846137d6565b9250613c3360208501613b15565b60008060006060848603121561408257600080fd5b61408b846137d6565b9250614099602085016137d6565b9150604084013590509250925092565b600080604083850312156140bc57600080fd5b82356140c7816139a9565b915060208301356140d7816139a9565b809150509250929050565b600080600080600060a086880312156140fa57600080fd5b614103866137d6565b945060208601356001600160401b038082111561411f57600080fd5b61412b89838a01613abf565b9550604088013591508082111561414157600080fd5b61414d89838a01613e4d565b9450613b8360608901613b15565b6000806000806080858703121561417157600080fd5b61417a856137d6565b9350614188602086016137d6565b92506040850135614198816139a9565b9396929550929360600135925050565b600181811c908216806141bc57607f821691505b6020821081036141dc57634e487b7160e01b600052602260045260246000fd5b50919050565b8183823760009101908152919050565b634e487b7160e01b600052601160045260246000fd5b60006001820161421a5761421a6141f2565b5060010190565b6020808252602e908201527f4552433732313a2063616c6c6572206973206e6f7420746f6b656e206f776e6560408201526d1c881b9bdc88185c1c1c9bdd995960921b606082015260800190565b81835281816020850137506000828201602090810191909152601f909101601f19169091010190565b61ffff841681526040602082015260006123df60408301848661426f565b600082601f8301126142c757600080fd5b81516142d5613ade82613a98565b8181528460208386010111156142ea57600080fd5b6123e2826020830160208701613912565b6000806040838503121561430e57600080fd5b82516001600160401b038082111561432557600080fd5b614331868387016142b6565b935060209150818501518181111561434857600080fd5b85019050601f8101861361435b57600080fd5b8051614369613ade82613e2a565b81815260059190911b8201830190838101908883111561438857600080fd5b928401925b828410156143a65783518252928401929084019061438d565b80955050505050509250929050565b81810381811115610dd157610dd16141f2565b8284823760609190911b6bffffffffffffffffffffffff19169101908152601401919050565b601f82111561102957600081815260208120601f850160051c810160208610156144155750805b601f850160051c820191505b818110156115b957828155600101614421565b81516001600160401b0381111561444d5761444d613a52565b6144618161445b84546141a8565b846143ee565b602080601f831160018114614496576000841561447e5750858301515b600019600386901b1c1916600185901b1785556115b9565b600085815260208120601f198616915b828110156144c5578886015182559484019460019091019084016144a6565b50858210156144e35787850151600019600388901b60f8161c191681555b5050505050600190811b01905550565b60008351614505818460208801613912565b835190830190614519818360208801613912565b64173539b7b760d91b9101908152600501949350505050565b600061ffff80881683528087166020840152508460408301526080606083015261456060808301848661426f565b979650505050505050565b61ffff8616815260806020820152600061458960808301868861426f565b6001600160401b0394909416604083015250606001529392505050565b61ffff861681526001600160a01b038516602082015260a0604082018190526000906145d490830186613936565b841515606084015282810360808401526145ee8185613936565b98975050505050505050565b6000806040838503121561460d57600080fd5b505080516020909101519092909150565b6001600160401b0383111561463557614635613a52565b6146498361464383546141a8565b836143ee565b6000601f84116001811461467d57600085156146655750838201355b600019600387901b1c1916600186901b178355610eeb565b600083815260209020601f19861690835b828110156146ae578685013582556020948501946001909201910161468e565b50868210156146cb5760001960f88860031b161c19848701351681555b505060018560011b0183555050505050565b600081518084526020808501945080840160005b8381101561470d578151875295820195908201906001016146f1565b509495945050505050565b60408152600061472b6040830185613936565b828103602084015261473d81856146dd565b95945050505050565b60006020828403121561475857600080fd5b81516001600160401b0381111561476e57600080fd5b6123e2848285016142b6565b61ffff851681526080602082015260006147976080830186613936565b6001600160401b038516604084015282810360608401526145608185613936565b80820180821115610dd157610dd16141f2565b634e487b7160e01b600052603260045260246000fd5b61ffff8716815260c0602082015260006147fe60c0830188613936565b82810360408401526148108188613936565b6001600160a01b0387811660608601528616608085015283810360a0850152905061483b8185613936565b9998505050505050505050565b8082028115828204841417610dd157610dd16141f2565b60008251614871818460208701613912565b9190910192915050565b602081526000611b6e60208301846146dd565b8281526040602082015260006123e26040830184613936565b60208082526032908201527f4552433732313a207472616e7366657220746f206e6f6e20455243373231526560408201527131b2b4bb32b91034b6b83632b6b2b73a32b960711b606082015260800190565b634e487b7160e01b600052601260045260246000fd5b60008261491e5761491e6148f9565b500490565b600082614932576149326148f9565b500690565b61ffff8616815260a06020820152600061495460a0830187613936565b6001600160401b038616604084015282810360608401526149758186613936565b905082810360808401526145ee8185613936565b6001600160a01b03858116825284166020820152604081018390526080606082018190526000906149bc90830184613936565b9695505050505050565b6000602082840312156149d857600080fd5b8151611b6e816138df56fe697066733a2f2f516d54577462646d4e74375436444b657331724c4c61676f4572485643445653647250486446535871385a6869362fa2646970667358221220b52fe66f3f8dfc755ee4f61aad82ba184dcdc2e97bca0b1e9a62e9f42e2b33bd64736f6c63430008120033",
  "linkReferences": {},
  "deployedLinkReferences": {}
}